:020000040800F2
:1000000000000220C9140008610500086F050008FF
:10001000750500087B050008810500080000000048
:10002000000000000000000000000000870500083C
:100030009505000800000000A3050008B1050008B0
:1000400019150008191500081915000819150008D8
:1000500019150008191500081915000819150008C8
:1000600019150008191500081915000819150008B8
:1000700019150008191500081915000819150008A8
:100080001915000819150008191500081915000898
:100090001915000819150008191500081915000888
:1000A0001915000819150008191500081915000878
:1000B0001915000819150008191500081915000868
:1000C0001915000819150008191500081915000858
:1000D0001915000819150008191500081915000848
:1000E0001915000819150008191500081915000838
:1000F0001915000819150008191500081915000828
:100100001915000819150008191500081915000817
:100110001915000819150008191500081915000807
:100120001915000819150008190500081915000807
:1001300019150008191500081915000819150008E7
:1001400019150008191500081915000819150008D7
:1001500019150008191500081915000819150008C7
:1001600019150008191500081915000819150008B7
:1001700019150008191500081915000800000000DD
:0801800019150008191500080B
:1001880010B5054C237833B9044B13B10448AFF3C9
:1001980000800123237010BD100000200000000023
:1001A8006415000808B5034B1BB103490348AFF3B6
:1001B800008008BD0000000014000020641500083D
:1001C80080B500AF00F0F8F900F02EF800F0B2F8B2
:1001D80000F008F84FF48051014800F02EFBF9E7D1
:1001E800000C024080B500AF0121102000F04CFC4B
:1001F8000B4B00221A810A4B4FF6FF725A60084BCC
:1002080042F2CF021A800649064800F07DFC01211F
:10021800044800F0E5FC034B00225A6200BF80BD91
:10022800440000200010004080B500AF01210820E4
:1002380000F00AFC394B4FF470421A60374B012228
:100248001A71364B00229A71344B03225A71334B80
:100258000022DA713149324800F060FA01210420A5
:1002680000F0F2FB2D4B40221A602C4B02221A712F
:100278002A4B03225A71294B00229A71274B0022DC
:10028800DA712649274800F049FA244B80221A607F
:10029800224B00221A71214B03225A711F4B002254
:1002A8009A711E4B0022DA711C491E4800F036FA7A
:1002B800022206211B4800F0CFFA0121022000F09B
:1002C800E3FB194B42F20F725A60174B42F2CF020E
:1002D8001A80154B00221A81134B00225A801249AA
:1002E800124800F011FC01220121104800F060FDC5
:1002F8000F4B00221A800E4B0F221A810C4B002242
:100308005A800B4B01229A800949084800F088FC62
:100318000121064800F064FC00BF80BD38000020C1
:10032800000C024000080240440000200004004085
:100338005000002080B500AF0121102000F0C4FB60
:100348000121022000F080FB01214FF4800000F021
:100358007BFB644B02221A71624B00229A71614B3B
:100368000022DA715F4B03225A715E4BC0221A6079
:100378005C495D4800F0D2F9072206215A4800F08E
:100388006BFA07220721584800F066FA574B4FF4DA
:1003980016521A60554B00229A81544B0C225A81EE
:1003A800524B00221A81514B0022DA804F4B002217
:1003B8009A804E494E4800F047FE01214C4800F013
:1003C800FDFE012280214A4800F018FF0122402149
:1003D800474800F013FF474B01221A61454B4FF085
:1003E80000621A60434B0022DA60424B0022DA6254
:1003F800404B01221A63404A3E4B9A603D4B002213
:100408005A633C4B00221A623A4B4FF480629A615D
:10041800384B00225A62374B384A5A60354B002213
:10042800DA61344B00225A61324B4FF400329A623F
:10043800304B00229A632F49314800F065FF0121B3
:100448002F4800F0B9FF2B4B01221A61294B4FF0BE
:1004580000621A60274B4022DA60264B0022DA62DB
:10046800244B01221A63274A224B9A60214B00220F
:100478005A63204B00221A621E4B4FF480629A6125
:100488001C4B00225A621B4B1C4A5A60194B002213
:10049800DA61184B00225A61164B4FF400329A6207
:1004A800144B00229A631349174800F02DFF0121CD
:1004B800154800F081FF154B3A221A70134B0022A1
:1004C8005A70124B00229A70104B0122DA700F48B2
:1004D80000F0B8FE01221021094800F089FF00BF92
:1004E80080BD00BF38000020000402405C000020EE
:1004F800001001406C0000202C0000200410014076
:100508004064024030000020B864024040000020EF
:1005180080B500AF0C490D4800F0A4FF00210B483E
:1005280000F04AFF0A4B93F90030532B03D1094BD3
:1005380001221A6002E0074B00221A6001210348D9
:1005480000F03AFF00BF80BD0080201040640240E8
:100558002C0000203400002080B400AF00BFBD464E
:100568005DF8047B704780B400AFFEE780B400AF4D
:10057800FEE780B400AFFEE780B400AFFEE780B4CA
:1005880000AF00BFBD465DF8047B704780B400AF84
:1005980000BFBD465DF8047B704780B400AF00BF64
:1005A800BD465DF8047B704780B400AF00BFBD4610
:1005B8005DF8047B7047000080B500AF164BD3F898
:1005C8008830154A43F47003C2F88830134B1B680F
:1005D800124A43F001031360104B00229A600F4B3C
:1005E8001B680E4A23F0847323F4803313600B4B8B
:1005F8000B4A5A60094B1B68084A23F4802313608E
:10060800064B0022DA6000F00DF8034B4FF0006251
:100618009A6000BF80BD00BF00ED00E000380240D6
:100628001030002480B483B000AF00237B60002327
:100638003B60364B1B68354A43F480331360334BB9
:100648001B6803F400333B607B6801337B603B68C5
:10065800002B03D17B68B3F5A04FF0D12B4B1B685F
:1006680003F40033002B02D001233B6001E0002398
:100678003B603B68012B42D1244B1B6C234A43F05F
:1006880080531364224B1B68214A43F44043136090
:100698001E4B1E4A9B6893601C4B9B681B4A43F485
:1006A80000439360194B9B68184A43F4A053936026
:1006B800164B184A5A60154B1B68144A43F080734E
:1006C800136000BF114B1B6803F00073002BF9D0B7
:1006D800114B40F205721A600C4B9B680B4A23F0D1
:1006E80003039360094B9B68084A43F00203936035
:1006F80000BF064B9B6803F00C03082BF9D100BF21
:100708000C37BD465DF8047B704700BF00380240D7
:100718000070004008544007003C024080B487B095
:1007280000AF7860396000237B6100233B610023C0
:10073800FB6000237B6176E001227B6902FA03F308
:100748003B613B681B683A691340FB60FA683B6988
:100758009A4265D17B681A687B695B00032101FABC
:1007680003F3DB431A407B681A607B681A683B68AE
:100778001B7919467B695B0001FA03F31A437B680E
:100788001A603B681B79012B03D03B681B79022B4D
:100798002ED17B689A687B695B00032101FA03F319
:1007A800DB431A407B689A607B689A683B685B7990
:1007B80019467B695B0001FA03F31A437B689A6068
:1007C8007B685A687B699BB2194601238B40DB43DF
:1007D8001A407B685A607B685B683A689279114670
:1007E8007A6992B201FA02F292B21A437B685A60AD
:1007F8007B68DA687B699BB25B00032101FA03F32B
:10080800DB431A407B68DA607B68DA683B68DB792F
:1008180019467B695B0001FA03F31A437B68DA60C7
:100828007B6901337B617B690F2B85D900BF00BFD2
:100838001C37BD465DF8047B704780B483B000AFB9
:1008480078600B467B807B687A881A8300BF0C37F8
:10085800BD465DF8047B704780B485B000AF786012
:100868000B467B8013467B700023FB600023BB6034
:100878007A787B8803F007039B0002FA03F3FB6096
:100888007B88DB089BB21A467B68083253F8222023
:100898007B8803F007039B000F2101FA03F3DB4376
:1008A8007988C90889B2084602EA03017B6800F121
:1008B800080243F822107B88DB089BB21A467B6843
:1008C800083253F82230FA681343BB607B88DB0890
:1008D8009BB21A467B680832B96843F8221000BFF9
:1008E8001437BD465DF8047B7047000080B489B0BA
:1008F80000AF78600023BB6100237B610023FB61AC
:1009080002233B610023FB600223BB604A4B9B68C8
:1009180003F00C03BB61BB69082B11D0BB69082B22
:1009280044D8BB69002B03D0BB69042B04D03DE03D
:100938007B68424A1A603DE07B68414A1A6039E0A8
:100948003D4B5B689B0D03F00103FB603A4B5B6812
:1009580003F03F03BB60FB68002B0CD0384ABB6830
:10096800B2FBF3F3344A52689209C2F3080202FB5D
:1009780003F3FB610BE0314ABB68B2FBF3F32E4A89
:1009880052689209C2F3080202FB03F3FB612A4B87
:100998005B681B0C03F0030301335B003B61FA69DE
:1009A8003B69B2FBF3F27B681A6003E07B68234A79
:1009B8001A6000BF204B9B6803F0F003BB61BB6962
:1009C8001B09BB611F4ABB6913441B78DBB27B61FF
:1009D8007B681A687B69DA407B685A60164B9B68AB
:1009E80003F4E053BB61BB699B0ABB61154ABB6951
:1009F80013441B78DBB27B617B685A687B69DA40F9
:100A08007B689A600C4B9B6803F46043BB61BB69CD
:100A18005B0BBB610B4ABB6913441B78DBB27B6180
:100A28007B685A687B69DA407B68DA6000BF2437E4
:100A3800BD465DF8047B7047003802400024F4008E
:100A480000127A000000002080B483B000AF786004
:100A58000B46FB70FB78002B06D00A4B1A6B094932
:100A68007B6813430B6306E0064B1A6B7B68DB431A
:100A7800044913400B6300BF0C37BD465DF8047B87
:100A8800704700BF0038024080B483B000AF786080
:100A98000B46FB70FB78002B06D00A4B1A6C0949F1
:100AA8007B6813430B6406E0064B1A6C7B68DB43D8
:100AB800044913400B6400BF0C37BD465DF8047B46
:100AC800704700BF0038024080B483B000AF786040
:100AD8000B46FB70FB78002B06D00A4B5A6C094971
:100AE8007B6813434B6406E0064B5A6C7B68DB4318
:100AF800044913404B6400BF0C37BD465DF8047BC6
:100B0800704700BF0038024080B485B000AF7860FD
:100B180039600023FB817B681B88FB817B68294A3D
:100B2800934213D07B68284A93420FD07B68B3F175
:100B3800804F0BD07B68254A934207D07B68244AB4
:100B4800934203D07B68234A934208D1FB8923F060
:100B58007003FB813B685A88FB891343FB817B68E0
:100B68001D4A93420CD07B681C4A934208D0FB89EB
:100B780023F44073FB813B681A89FB891343FB818B
:100B88007B68FA891A803B685A687B68DA623B6836
:100B98001A887B681A857B680A4A934203D07B6867
:100BA800094A934204D13B689B7A9AB27B681A86B9
:100BB8007B6801229A8200BF1437BD465DF8047B2A
:100BC800704700BF000001400004014000040040DD
:100BD80000080040000C00400010004000140040D5
:100BE80080B483B000AF78600B46FB70FB78002BB5
:100BF80008D07B681B889BB243F001039AB27B68DC
:100C08001A8007E07B681B889BB223F001039AB225
:100C18007B681A8000BF0C37BD465DF8047B7047BF
:100C280080B582B000AF786039603B681B88002BC4
:100C38000FD13B6859883B689A883B681B8978685C
:100C480000F0DAF83B68DB881946786800F03CF871
:100C580036E03B681B88042B0FD13B6859883B68FA
:100C68009A883B681B89786800F009F93B68DB883B
:100C78001946786800F044F822E03B681B88082B86
:100C88000FD13B6859883B689A883B681B8978680C
:100C980000F042F93B68DB881946786800F04EF8A6
:100CA8000EE03B6859883B689A883B681B897868DE
:100CB80000F07AF93B68DB881946786800F05AF842
:100CC80000BF0837BD4680BD80B483B000AF7860F0
:100CD8000B467B807B681B8B9BB223F00C039AB27C
:100CE8007B681A837B681B8B9AB27B8813439AB202
:100CF8007B681A8300BF0C37BD465DF8047B7047DC
:100D080080B483B000AF78600B467B807B681B8B18
:100D18009BB223F440639AB27B681A837B681B8B6F
:100D28009AB27B881B029BB213439AB27B681A83E0
:100D380000BF0C37BD465DF8047B704780B483B0B4
:100D480000AF78600B467B807B689B8B9BB223F05F
:100D58000C039AB27B689A837B689B8B9AB27B88D8
:100D680013439AB27B689A8300BF0C37BD465DF87F
:100D7800047B704780B483B000AF78600B467B80FB
:100D88007B689B8B9BB223F440639AB27B689A83FF
:100D98007B689B8B9AB27B881B029BB213439AB2E7
:100DA8007B689A8300BF0C37BD465DF8047B7047AB
:100DB80080B483B000AF78600B467B8013467B70AD
:100DC8007B78002B08D07B689B899AB27B88134379
:100DD8009AB27B689A8109E07B689B899AB27B8882
:100DE800DB439BB213409AB27B689A8100BF0C37F1
:100DF800BD465DF8047B704780B487B000AFF860EB
:100E0800084611461A4603467B810B463B8113462A
:100E1800FB800023FB820023BB82FB681B8C9BB2F8
:100E280023F001039AB2FB681A84FB681B8BFB82D0
:100E3800FB681B8CBB82FB8A23F0F303FB82FB88D5
:100E48001B019AB23B8913439AB2FB8A1343FB8274
:100E5800BB8A23F00A03BB827A89BB8A13439BB2FD
:100E680043F00103BB82FB68FA8A1A83FB68BA8ADB
:100E78001A8400BF1C37BD465DF8047B704780B4F8
:100E880087B000AFF860084611461A4603467B81D2
:100E98000B463B811346FB800023FB820023BB8269
:100EA80000237B82FB681B8C9BB223F010039AB251
:100EB800FB681A84FB681B8BFB82FB681B8CBB825C
:100EC8007B891B017B82FB8A23F440731B051B0D66
:100ED800FB82FB881B039AB2FB8A1343FB823B8984
:100EE8001B029AB2FB8A1343FB82BB8A23F0A0033E
:100EF800BB827A8ABB8A13439BB243F01003BB823E
:100F0800FB68FA8A1A83FB68BA8A1A8400BF1C37FE
:100F1800BD465DF8047B704780B487B000AFF860C9
:100F2800084611461A4603467B810B463B81134609
:100F3800FB800023FB820023BB8200237B82FB68AB
:100F48001B8C9BB223F480739AB2FB681A84FB68EB
:100F58009B8BFB82FB681B8CBB827B891B027B8281
:100F6800FB8A23F0F303FB82FB881B019AB23B89BF
:100F780013439AB2FB8A1343FB82BB8A23F4206390
:100F8800BB827A8ABB8A13439BB243F48073BB82C9
:100F9800FB68FA8A9A83FB68BA8A1A8400BF1C37EE
:100FA800BD465DF8047B704780B487B000AFF86039
:100FB800084611461A4603467B810B463B81134679
:100FC800FB800023FB820023BB8200237B82FB681B
:100FD8001B8C9BB223F480539AB2FB681A84FB687B
:100FE8009B8BFB82FB681B8CBB827B891B037B82F0
:100FF800FB8A23F440731B051B0DFB823B891B02F4
:101008009AB2FB8A1343FB82FB881B039AB2FB8AC2
:101018001343FB82BB8A23F400535B045B0CBB8243
:101028007A8ABB8A13439BB243F48053BB82FB6822
:10103800FA8A9A83FB68BA8A1A8400BF1C37BD46AD
:101048005DF8047B7047000080B58AB000AF786017
:10105800396000237B6200233B620023FB6100238D
:10106800BB617B681B8A9BB27B627B6A23F440531B
:101078007B623B68DB881A467B6A13437B627B6A28
:101088009AB27B681A827B689B899BB27B627B6A77
:1010980023F4B05323F00C037B623B689A883B68C7
:1010A8001B8913439AB23B685B8913439BB21A4668
:1010B8007B6A13437B627B6A9AB27B689A817B68FE
:1010C8009B8A9BB27B627B6A23F440737B623B689A
:1010D8009B891A467B6A13437B627B6A9AB27B6858
:1010E8009A8207F108031846FFF700FC7B68304A2C
:1010F800934203D07B682F4A934202D17B693B62BB
:1011080001E03B693B627B689B899BB21BB2002B69
:101118000CDA3A6A13469B0013449A001A443B6857
:101128001B685B00B2FBF3F3FB610BE03A6A134602
:101138009B0013449A001A443B681B689B00B2FB4F
:10114800F3F3FB61FB691C4AA2FB03235B091B0148
:101158007B627B6A1B09642202FB03F3FA69D31AD8
:10116800BB617B689B899BB21BB2002B0CDABB6905
:10117800DB003233104AA2FB03235B0903F00703A9
:101188007A6A13437B620BE0BB691B0132330A4A5C
:10119800A2FB03235B0903F00F037A6A13437B6204
:1011A8007B6A9AB27B681A8100BF2837BD4680BD2A
:1011B80000100140001401401F85EB5180B483B03A
:1011C80000AF78600B46FB70FB78002B08D07B687B
:1011D8009B899BB243F400539AB27B689A8107E0DB
:1011E8007B689B899BB223F400539AB27B689A81EF
:1011F80000BF0C37BD465DF8047B704780B483B0F0
:1012080000AF78600B467B8013467B707B78002BA1
:1012180008D07B689B8A9AB27B8813439AB27B6812
:101228009A8209E07B689B8A9AB27B88DB439BB2EF
:1012380013409AB27B689A8200BF0C37BD465DF8AE
:10124800047B704780B485B000AF78600023FB73DF
:101258000023BB730F237B737B68DB78002B39D0AB
:10126800274BDB68DB431B0ADBB203F00703FB7386
:10127800FB7BC3F10403BB737A7BFB7B42FA03F36A
:101288007B737B685B781A46BB7B02FA03F3FB73BC
:101298007B689A787B7B1340DAB2FB7B1343FB7342
:1012A800FB7B1B01FB73174A7B681B781344FA7B93
:1012B80083F800237B681B7803F01F0311497A68C1
:1012C80012785209D2B21046012202FA03F341F809
:1012D80020300FE07B681B7803F01F0309497A6808
:1012E80012785209D2B2104601229A4000F1200326
:1012F80041F8232000BF1437BD465DF8047B7047D2
:1013080000ED00E000E100E080B485B000AF786057
:1013180039600023FB607B681B68FB60FA68254B1B
:101328001340FB603B681A683B68DB681A433B68FC
:101338005B691A433B689B691A433B68DB691A433C
:101348003B681B6A1A433B685B6A1A433B689B6AA3
:101358001A433B685B6B1A433B689B6B1343FA6801
:101368001343FB607B68FA681A607B685B69FB6003
:10137800FB6823F00703FB603B68DA6A3B681B6B7A
:101388001343FA681343FB607B68FA685A613B6849
:101398001A697B685A603B685A687B689A603B6840
:1013A8009A687B68DA6000BF1437BD465DF8047B35
:1013B800704700BF3F801CF080B483B000AF7860F6
:1013C8000B46FB70FB78002B06D07B681B6843F04C
:1013D80001027B681A6005E07B681B6823F0010244
:1013E8007B681A6000BF0C37BD465DF8047B704708
:1013F80080B485B000AFF860B9601346FB71BB6874
:1014080003F08003002B0FD0FB79002B06D0FB687C
:101418005B6943F08002FB685A6105E0FB685B6921
:1014280023F08002FB685A61BB68802B14D0FB79DB
:10143800002B08D0FB681A68BB6803F01E031A4328
:10144800FB681A6008E0FB681A68BB6803F01E03B3
:10145800DB431A40FB681A6000BF1437BD465DF8CD
:10146800047B704780B485B000AF786039607B68D2
:10147800104A934202D8104BFB6001E00F4BFB600F
:101488003B6803F00053002B07D03B6823F0F023A0
:1014980023F08213FA68D36006E03B6823F0F02358
:1014A80023F08213FA68936000BF1437BD465DF8D5
:1014B800047B70470F6402400060024000640240F1
:1014C800DFF834D0002103E00C4B5B584350043163
:1014D8000B480C4B42189A42F6D30B4A02E0002301
:1014E80042F8043B094B9A42F9D3FFF765F800F03C
:1014F80011F8FEF765FE7047000002208415000809
:10150800000000201000002010000020A80000208B
:10151800FEE7000070B50D4D0D4C641BA4100026AD
:10152800A64209D10B4D0C4C00F018F8641BA4100E
:101538000026A64205D170BD55F8043B98470136F0
:10154800EEE755F8043B98470136F2E77C150008AA
:101558007C1500087C15000880150008F8B500BF48
:10156800F8BC08BC9E467047F8B500BFF8BC08BC7C
:041578009E467047D4
:04157C00AD010008B5
:0415800089010008D5
:101584000000000001020304010203040607080925
:04000005080014C912
:00000001FF
